:100000002FEF08F00000000000EF00F000000000FB
:0A0010000000000000000000F3D71C
:10001C000F0E0C6E470E0D6E0D2EFED70C2EFCD750
:06002C00000000001200BC
:06003200000000001200B6
:0A003800210E0D6E0D2EFED71200F2
:100042000B840BAE2CEF00F0010E036E026A016A04
:0A005200006A0A360232FF0E1200A7
:08005C000AAE029E000E120024
:0E006400026A016A006A086A036A000E12004E
:10007200086A096A100E0C6E0134083609360450FB
:10008200085E0550D8A0053C095ED8B007D00450E0
:1000920008260550D8B0053C0926D890003601360E
:0600A2000C2EEAD712004B
:1000A8000001ACBF02D08B9601D08B86ACBD02D0CC
:1000B8008B9401D08B84ACBB02D08B9201D08B8205
:1000C800ACB902D08B9001D08B8082B102D08B88E2
:1000D80001D08B988B8AA9DF8B9AACB702D08B960C
:1000E80001D08B86ACB502D08B9401D08B84ACB395
:1000F80002D08B9201D08B82ACB102D08B9001D010
:100108008B8082B102D08B8801D08B988B8A8DDF4F
:0E0118008B9A82A102D07EDF01D08ADF120016
:100126000B820BAE9DEF00F0036802680168006861
:080136000A360232FF0E12002E
:0E013E0000018291A5C0ACF0B0DF82811200FA
:10014C00086A096A000E076203642BEF01F0025083
:10015C0006180A6E075003267E0ED8A0BCEF00F0DE
:10016C00035ED8B02FEF01F0C0EF00F0035ED8A013
:10017C0033EF01F0028E068E02C00EF001C00BF0C0
:10018C0000C00DF000500402F4CF0CF00150050239
:10019C00F4CF00F0F3CF08F00402F3500C26F45027
:1001AC000822000E00220D500502F3500C26F450CC
:1001BC000822000E002202500402F3500826F450CC
:1001CC00002202500502016A000E0122F3500026A3
:1001DC00F45001220D500602F3500826F450002270
:1001EC00026A000E012202220B500602F350002676
:1001FC00F4500122000E02220E500602F35001268A
:10020C00F450022202BE13EF01F00836003601361C
:10021C0002360306D8B433EF01F026EF01F0D88094
:10022C00800E08640030000E002201220222D8A0A9
:10023C0026EF01F0023201320032034A2FEF01F0B7
:10024C000AAE029E000E35EF01F0010E05DF35EF10
:10025C0001F0020E62DF35EF01F0040EECDE12004D
:0C026C00060E0D6E0D2EFED700001200D5
:0C0278000E0E0D6E0D2EFED700001200C1
:100284000C6A0E6A0250D8A45BEF01F001C002F0C0
:1002940000C001F0006A0E860250D8A45BEF01F0A2
:1002A40001C002F0016A0E960E880250D8B46DEFB8
:1002B40001F00E50035ED8A4D8A072EF01F0D890DC
:1002C40002BE77EF01F0003601360236032E62EFEC
:1002D40001F072EF01F0010E0C6EC2DE7AEF01F054
:1002E400020E0C6EACDE7AEF01F0040E0C6EB4DE7E
:0202F4001200F6
:1002F6000001A56BA76BA86B100EA96F040EA85D75
:100306001DE2F00E816EA91D936E90DE8FDE0F0E3C
:100316008114006E00C0A6F000520AE0A7C0A5F046
:10032600A65304E0A633A69FA52BFAD7040EA86F02
:10033600A937A991040EA727A82BE0D7A5C000F0DE
:020346001200A3
:080348000B6A0B86FF0E120088
:100350000A6A0350D8A40A800750D8A40A820A5017
:10036000D8B40BEF02F0030AD8B4C4EF01F00AB01E
:10037000BFEF01F006AE09EF02F007EF02F002AEA8
:1003800007EF02F009EF02F00250800B0A6E029EA6
:100390000650800B069E0A18D8B4D5EF01F00A501B
:1003A000D8B407EF02F009EF02F00750035CD8B4AD
:1003B000DFEF01F0D8A0FBEF01F001EF02F00650F3
:1003C000025CD8B4E9EF01F0D8A0FBEF01F001EF37
:1003D00002F00550015CD8B4F3EF01F0D8A0FBEFB8
:1003E00001F001EF02F00450005CD8B40BEF02F012
:1003F000D8B001EF02F00A52D8B409EF02F007EFCB
:1004000002F00A52D8B407EF02F009EF02F0D880E8
:0E0410001200D8901200D880D884120012007A
:10041E00A5C004F0A6C005F004C002F005C003F0AC
:10042E00044A052AA7C000F0A8C001F00001A74B9E
:10043E00A82B00C0E9FF01C0EAFF02C0E1FF03C024
:10044E00E2FFEECFE6FF02C0E9FF03C0EAFFEE5285
:0E045E0001E0E2D7A5C000F0A6C001F0120038
:10046C00086A080E0C6E003408360450085ED8B0CA
:0E047C0002D00826D89000360C2EF5D71200BC
:10048A000001A96B050EA95D0AE2A951A725E16E33
:10049A00000EA821E26E200EE66EA92BF3D7A95111
:1004AA00A725E16E000EA821E26EE66AA907A95106
:1004BA00A725AA6F000EA821AB6F0A0E046E000EC4
:1004CA00056EA5C000F0A6C001F0CEDD08C000F0A0
:1004DA0009C001F0300E0026AAC0E1FFABC0E2FF5E
:1004EA0000C0E6FF0A0E046E000E056EA5C000F0FD
:1004FA00A6C001F0B9DD00C0A5F001C0A6F0000E4B
:10050A00011802E1000E001801E102D0A907CFD7B5
:02051A001200CD
:10051C000CB0D0EF02F00CA276EF03F00E6A000ED6
:10052C000264E7EF02F0F00E0214D8A4B2EF02F06E
:10053C00023A01380F0B02260138F00B016E00381D
:10054C000F0B01260038F00B006E08380F0B00263D
:10055C000838F00B086E0E84D89002BECBEF02F078
:10056C0008360036013602360E2A02BECBEF02F0F8
:10057C0008360036013602360E2A02BECBEF02F0E8
:10058C0008360036013602360E2A0E5003646CEF24
:10059C0003F0035E0BBC08AE71EF03F0D880800E45
:1005AC0008640030000E002201220222D8A071EF54
:1005BC0003F0023201320032034A76EF03F071EF9E
:1005CC0003F001C002F000C001F008C000F0086A9E
:1005DC00000E0E8602641EEF03F0F00E0214D8A477
:1005EC0006EF03F0023A01380F0B02260138F00B2C
:1005FC00016E00380F0B01260038F00B006E0E84D4
:10060C00D89002BECBEF02F00036013602360E2A2D
:10061C0002BECBEF02F00036013602360E2A02BEC5
:10062C00CBEF02F00036013602360E2ACBEF02F089
:10063C0001C002F000C001F0006A000E0E960E8898
:10064C0002644BEF03F0F00E0214D8A436EF03F063
:10065C00023A01380F0B02260138F00B016E0E84A2
:10066C00D89002BECBEF02F0013602360E2A02BE43
:10067C00CBEF02F0013602360E2A02BECBEF02F0AF
:10068C00013602360E2ACBEF02F001C002F0016AED
:10069C00000E0E8602647BEF03F0F00E0214D8A459
:1006AC005AEF03F0023A0E84D89002BECBEF02F060
:1006BC0002360E2A02BECBEF02F002360E2A02BE22
:1006CC00CBEF02F002360E2ACBEF02F0010E0C6ECD
:1006DC00B2DC7EEF03F0020E0C6EBADC7EEF03F0A0
:1006EC00040E0C6E1ADD7EEF03F0080E0C6EB4DCFB
:0206FC001200EA
:1006FE00FBDD00C097F00F0E8114006E02E0AFDD3F
:08070E00FAD797C000F01200B9
:10071600949A949894909492949494968B9A8B9895
:100726008B968B948B928B9076DC75DC74DC8B824B
:100736008B808B8A7BDC8B9A6EDC8B8A77DC8B9A40
:100746006ADC8B8A73DC8B9A66DC8B908B8A6EDC18
:100756008B9A61DC8B8A6ADC8B9A8B928B868B8A6E
:1007660065DC8B9A58DC8B968B808B8A5FDC8B9A48
:100776008B908B8A5BDC8B9A4EDC8B8A57DC8B9A50
:100786008B808B8A53DC8B9A46DC8B908B8A4EDC73
:100796008B9A8B868B848B828B808B8A47DC8B9A99
:0807A6003ADC0001828112001F
:1007AE0010D0800E0001976F1AD0C00E976F17D021
:1007BE00940E976F14D0D40E976F11D0800E976F42
:1007CE000ED000019751010AECE09751020AEDE0BC
:1007DE009751030AEDE09751040AEDE0EFD7980523
:1007EE00006E9751002600C097F000C0ACF055DCAB
:1007FE0082919B6B9B519925E96E000E9A21EA6EB0
:10080E00EE520BE09B519925E96E000E9A21EA6E8D
:0E081E00EECFA5F08DDC9B2BEDD78281120072
:10082C000900F5CFE6FF0006FBE10106F9E1120035
:06083C00FF0E936E120096
:100842000450000A12E10550000A0FE10650000AA6
:100852000CE10750000A09E1FF0E006EFF0E016E67
:100862007F0E026EFF0E036EA7D0086A096A075058
:10087200D8B4CCEF04F00350D8B4D0EF04F0025057
:1008820006180A6E028E068E0E6A02C008F001C0B9
:100892000CF000C00DF004500D5E0550D8A0053CD0
:1008A2000C5E0650D8A0063C085E086A0C6A0D6A07
:1008B200D8A063EF04F0D89002320132003208323D
:1008C200010E0E6E0750035ED8A070EF04F07E0E8C
:1008D2000E240326D8B0D5EF04F076EF04F07E0E96
:1008E2000E240326D8A0DAEF04F0180E0B6E0D3694
:1008F2000C3608360036013602360E360450005EDB
:100902000550D8A0053C015E0650D8A0063C025E08
:1009120006340E120EA091EF04F00D809CEF04F04D
:10092200045000260550D8B0053C01260650D8B028
:10093200062802260D900B2E78EF04F0C2EF04F089
:10094200D8900036013602360E360450005E05504D
:10095200D8A0053C015E0650D8A0063C025E0634D3
:100962000E10010B0D26D8B00C2AD8B4082AD8A430
:10097200C2EF04F008320C320D32032AD8B4D5EF9C
:1009820004F00AAE089E0850026E0C50016E0D5023
:10099200006EDDEF04F0010ED6DCDDEF04F0020E96
:1009A20032EC00F0DDEF04F0040E93EC00F0DDEF2A
:0A09B20004F0080E21EC00F0120022
:1009BC000050086E0150006E016A026A036A0B6AED
:1009CC000C6A960E036E0A6A00C001F008C000F0B3
:0809DC00086A026A51DC1200F6
:1009E4000001A36BA46B97C09FF098C0A0F099C0BE
:1009F400A1F09AC0A2F0A251FF0A08E1A151FF0A96
:100A040005E1A051FF0A02E19F51FF0A0CE19BC0DE
:100A1400A5F09CC0A6F06C0EA76F000EA86FFDDCBD
:100A2400030E006EE9D1010E9D6FA1AF0ED0800EB2
:100A3400A119006E00C0A1F09D2B9BC0E1FF9CC0DA
:100A4400E2FF2D0EE66E9B4B9C2B000E006EA2194E
:100A540008E10050A11905E10050A01902E19F51DD
:100A6400000A0BE19BC0A5F09CC0A6F06A0EA76F1C
:100A7400000EA86FD2DC006ABFD1A251FF0A08E1C0
:100A8400A151000A05E1A051000A02E19F51000AA8
:100A94000CE19BC0A5F09CC0A6F07E0EA76F000ED3
:100AA400A86FBBDC9DC000F0A7D1000E046E000E41
:100AB400056E000E066E7F0E076E9FC000F0A0C08C
:100AC40001F0A1C002F0A2C003F040DC010ED8B0D6
:100AD400000E006E00521CE09FC000F0A0C001F0A8
:100AE400A1C002F0A2C003F0000E046E000E056E59
:100AF400200E066E820E076EA6EC00F000C09FF07A
:100B040001C0A0F002C0A1F003C0A2F0A407CDD799
:100B1400000E046E000E056E200E066E820E076E29
:100B24009FC000F0A0C001F0A1C002F0A2C003F079
:100B34000DDC000ED8B0010E006E00521CE09FC008
:100B440000F0A0C001F0A1C002F0A2C003F0CD0EDD
:100B5400046ECC0E056E4C0E066E7B0E076EA6EC74
:100B640000F000C09FF001C0A0F002C0A1F003C0DB
:100B7400A2F0A42BCDD7FF0E9F15086EFF0EA01573
:100B8400096E7F0EA1150A6E000EA2150B6E08C029
:100B940004F009C005F00AC006F00BC007F00436E3
:100BA4000490053606360736000E9F15006E000EBB
:100BB400A015016E000EA115026EFF0EA215036EA4
:100BC40000C09FF001C0A0F002C0A1F003C0A2F0D9
:100BD40004509F11006E0550A011016E0650A11122
:100BE400026E0750A211036E00C09FF001C0A0F076
:100BF40002C0A1F003C0A2F07F0EA25D006E00C08F
:100C04009EF0010EA26F00C004F09FC000F0A0C0CF
:100C140001F0A1C002F0A2C003F0045007E00036C6
:100C24000090013602360336FF0FF8D700C09FF05C
:100C340001C0A0F002C0A1F003C0A2F09BC0E1FF7C
:100C44009CC0E2FFA251300FE66E9B4B9C2B800EA2
:100C5400A419006E800E010A005C08E3800E060AE7
:100C6400006E800EA419005C01E30AD09BC0E1FF72
:100C74009CC0E2FF2E0EE66E9B4B9C2B010EA36FD5
:100C8400060E9E6F9E51000A54E0A26B9FC000F0B6
:100C9400A0C001F0A1C002F0A2C003F00036009091
:100CA400013602360336003600900136023603362A
:100CB4009F510026A0510122A1510222A2510322D8
:100CC40000C09FF001C0A0F002C0A1F003C0A2F0D8
:100CD4009FC000F0A0C001F0A1C002F0A2C003F0C8
:100CE4000036009001360236033600C09FF001C082
:100CF400A0F002C0A1F003C0A2F09BC0E1FF9CC021
:100D0400E2FFA251300FE66E9B4B9C2BA351000ACD
:100D14000EE1A407A451000A0AE19BC0E1FF9CC0B4
:100D2400E2FF2E0EE66E9B4B9C2B010EA36F9E07DB
:100D3400A9D7FF0E9B25E96EFF0E9C21EA6EEE50AB
:100D4400300A05E1010E9B5F000E9C5BF2D7FF0E9B
:100D54009B25E96EFF0E9C21EA6EEE502E0A04E1FB
:100D6400010E9B5F000E9C5BA451000A3FE09BC0F8
:100D7400E1FF9CC0E2FF650EE66E9B4B9C2B800E50
:100D8400A419006E800E000A005C0BE29BC0E1FF18
:100D94009CC0E2FF2D0EE66E9B4B9C2BA4510008D9
:100DA400A46FA4C09EF0A45109080FE20A0E046EB9
:100DB4009EC000F036EC02F09BC0E1FF9CC0E2FF55
:100DC4000050300FE66E9B4B9C2B0A0E046E9EC0A7
:100DD40000F036EC02F008C000F09BC0E1FF9CC0BC
:100DE400E2FF0050300FE66E9B4B9C2B9BC0E1FF53
:0A0DF4009CC0E2FFE66A006A1200EC
:100DFE0003500718D8A413EF07F002500618D8A412
:100E0E0013EF07F001500518D8A413EF07F00050A8
:0E0E1E000418D8B4D8841200D8941200120020
:100E2C0000C008F00B6A0C6A9E0E036E0A6A026A16
:0E0E3C00016A006A020E0C6E8EEC02F01200CB
:100E4A000001996B9A6B97C003F098C004F097C0A1
:100E5A0005F098C006F003C0E9FF04C0EAFFEE50AF
:100E6A00200A04E199519A1101E110D0010E996FFB
:100E7A00000E9A6F03C0E9FF04C0EAFF05C0E1FF54
:100E8A0006C0E2FFEECFE6FF054A062A03C001F0DC
:100E9A0004C002F0034A042A01C0E9FF02C0EAFFC3
:100EAA00EE50000AD8E197C000F098C001F0120095
:100EBA0000019D6B9E6B97C09FF098C0A0F0800EBA
:100ECA009819006E800E005C02E1000E975D0BE23D
:100EDA00010E9D6F000E9E6F975100089F6F98C07C
:100EEA00A0F0000EA0579FC0A5F0A0C0A6F099C020
:100EFA00A7F09AC0A8F045EC02F0060E9B6F000E10
:100F0A009C6F000E006E9C51005C02E19B51000830
:100F1A0019E29B519925E16E9C519A21E26E010ECC
:100F2A009B5D006E000E9C59016E00509925E96E7A
:100F3A0001509A21EA6EEECFE6FF010E9B5F000E8A
:100F4A009C5BDFD799C0E1FF9AC0E2FF200EE66EF4
:100F5A009D519E111AE09B6B9C6B9B519925E96EE2
:100F6A009C519A21EA6EEE50200A03E19B4B9C2B7E
:100F7A00F4D7010E9B5F000E9C5B9B519925E16E95
:0C0F8A009C519A21E26E2D0EE66E1200C2
:100F96000001996B99519725E96E000E9821EA6E2A
:100FA600EE520CE099519725E96E000E9821EA6EF3
:0E0FB600EECFA5F09FEC00F0992BECD71200C7
:100FC400C26A070EC012C08E97C000F000360090AF
:100FD400003600900050C212C2803CEC01F0C28284
:100FE400C2A201D0FDD7C4CF01F0006AC3500012E1
:080FF400000E0112C290120070
:100FFC0010D0800E0001976F1AD0C00E976F17D0CB
:10100C00940E976F14D0D40E976F11D0800E976FEB
:10101C000ED000019751010AECE09751020AEDE065
:10102C009751030AEDE09751040AEDE0EFD79805CC
:10103C00006E9751002600C097F0828100C0ACF082
:10104C0054EC00F0829199C0ACF054EC00F0828129
:02105C00120080
:10105E00FBEC09F01EEC04F00F013A6B396B3B6BA5
:10106E009280946A959095928BEC03F0010EAC6F82
:10107E0054EC00F00C0EAC6F54EC00F0010E976FB8
:10108E00040E986F740E996F000E9A6FD7EC03F0E2
:10109E00020E976F020E986F3C0E996F000E9A6FAC
:1010AE00D7EC03F0150E0B6E4B0E0C6EBE0E0D6EC6
:1010BE000D2EFED70C2EFCD70B2EFAD700008390E8
:1010CE008392010EAC6F54EC00F0010E976F010E7F
:1010DE00986F490E996F000E9A6FD7EC03F0926BD2
:1010EE00020E976F010E986F580E996F000E9A6F41
:1010FE00D7EC03F07FEC03F000C083F00052FAE06F
:10110E0083510F0A01E123D08351030804E2080E34
:10111E00835DD8A083078351080805E20C0E835D1A
:10112E0002E2020E835F83510E0AD8B4836B8351A1
:10113E000D0A01E1C6D7300E8325A56F9FEC00F096
:10114E000A0E9203F3CF92F083519227D3D7010E5A
:10115E00AC6F54EC00F0010E976F010E986F150EE8
:10116E00996F000E9A6FD7EC03F092C097F0000EB5
:10117E00986F840E996F000E9A6F98DE840E976F9B
:10118E00000E986F5BDE00C097F0000E986FFCDECD
:10119E00020E976F010E986F200E996F000E9A6FC8
:1011AE00D7EC03F0836B83510F0A07E07FEC03F05B
:1011BE0000C083F00052FAE0F6D7010EAC6F54EC8B
:1011CE0000F0010E976F010E986F310E996F000EA1
:1011DE009A6FD7EC03F0010E976F0F0E986FDF0E1C
:1011EE00996F05DF010E976F100E986F430E996F72
:1011FE00FEDE976BE0DEDEEC04F0000E046E400EB9
:10120E00056E1C0E066E8B0E076EA6EC00F0000E21
:10121E00046E000E056E000E066E890E076E21EC32
:10122E0004F0000E046E000E056E200E066E820E89
:10123E00076E21EC04F000C093F001C094F002C0E0
:10124E0095F003C096F092C097F0000E0001986FD3
:10125E00840E996F000E9A6F29DE840E976F000E22
:10126E00986FECDD010E976F0B0E986F00C099F022
:10127E00000E9A6FD7EC03F0020E976F010E986F67
:10128E00630E996F000E9A6FD7EC03F093C097F030
:10129E0094C098F095C099F096C09AF0840E9B6F0A
:1012AE00000E9C6FF2EC04F0886B020E976F070E27
:1012BE00986F840E996F000E9A6FD7EC03F0020EA2
:1012CE00976F0C0E986F700E996F000E9A6FD7EC89
:1012DE0003F092C000F0A3DD00C004F001C005F0E1
:1012EE0002C006F003C007F093C000F094C001F0F6
:1012FE0095C002F096C003F0A8EC01F0010ED8B034
:10130E00000E006E005202E08380839292C000F0C5
:10131E0086DD93C004F094C005F095C006F096C02B
:10132E0007F0A8EC01F0010ED8B0000E006E0052CE
:10133E0002E08390838292C000F071DD93C004F0CE
:10134E0094C005F095C006F096C007F051DD010E71
:10135E00D8A4000E006E005202E083908392660EB7
:10136E000B6E760E0C6EC10E0D6E0D2EFED70C2E64
:0A137E00FCD70B2EFAD73DD7FFD79E
:1013F60010EE15F06D0E006E010E016E880EF66E83
:0E140600130EF76E000EF86E16EC04F01200D6
:0B13880054656D70205265663A20002D
:101393005072657373202320746F20436F6E742E15
:0113A3000049
:0B13A40054656D70205265663A200011
:0D13AF0054656D7020436F6E74726F6C009A
:0F13BC00456E7465722054656D70205265660031
:0B13CB0054656D70205265663A2000EA
:0713D60054656D703D20001D
:0213DD003000DE
:0413DF004E614E000D
:0413E30020202000A6
:0A13E7004175746F6D617469630055
:0413F100494E46001B
:020000040030CA
:0D000100231F3CFFBF81FF0FC00FE00F4029
:00000001FF
